{"contracts/SimpleCounter.sol":{"SimpleCounter":{"abi":[{"inputs":[],"stateMutability":"nonpayable","type":"constructor"},{"anonymous":false,"inputs":[{"indexed":false,"internalType":"uint256","name":"newCount","type":"uint256"},{"indexed":true,"internalType":"address","name":"user","type":"address"}],"name":"CounterUpdated","type":"event"},{"inputs":[{"internalType":"uint256","name":"value","type":"uint256"}],"name":"decrement","outputs":[],"stateMutability":"nonpayable","type":"function"},{"inputs":[],"name":"getCount","outputs":[{"internalType":"uint256","name":"","type":"uint256"}],"stateMutability":"view","type":"function"},{"inputs":[{"internalType":"uint256","name":"value","type":"uint256"}],"name":"increment","outputs":[],"stateMutability":"nonpayable","type":"function"},{"inputs":[],"name":"owner","outputs":[{"internalType":"address","name":"","type":"address"}],"stateMutability":"view","type":"function"},{"inputs":[],"name":"reset","outputs":[],"stateMutability":"nonpayable","type":"function"}],"evm":{"bytecode":{"linkReferences":{},"object":"6080604052348015600f57600080fd5b50600180546001600160a01b03191633179055600080556102a9806100356000396000f3fe608060405234801561001057600080fd5b50600436106100575760003560e01c80633a9ebefd1461005c5780637cf5dab0146100715780638da5cb5b14610084578063a87d942c146100b4578063d826f88f146100c5575b600080fd5b61006f61006a366004610218565b6100cd565b005b61006f61007f366004610218565b610185565b600154610097906001600160a01b031681565b6040516001600160a01b0390911681526020015b60405180910390f35b6000546040519081526020016100ab565b61006f610196565b8060005410156101345760405162461bcd60e51b815260206004820152602760248201527f43616e6e6f74207375627472616374206d6f7265207468616e2063757272656e6044820152661d0818dbdd5b9d60ca1b60648201526084015b60405180910390fd5b806000808282546101459190610247565b909155505060005460405190815233907fb7ed3fe9b32fa6d4c8ee075d7c68e23f8409c6ef8f6292e5032c64ecf6dfa9019060200160405180910390a250565b806000808282546101459190610260565b6001546001600160a01b031633146101dc5760405162461bcd60e51b81526020600482015260096024820152682737ba1037bbb732b960b91b604482015260640161012b565b600080805560405190815233907fb7ed3fe9b32fa6d4c8ee075d7c68e23f8409c6ef8f6292e5032c64ecf6dfa9019060200160405180910390a2565b60006020828403121561022a57600080fd5b5035919050565b634e487b7160e01b600052601160045260246000fd5b8181038181111561025a5761025a610231565b92915050565b8082018082111561025a5761025a61023156fea2646970667358221220885ea4e8bc12d5c1bc056d1ecc0b5c11b90b514a7779f7fb47147a65750139a464736f6c634300081c0033","opcodes":"PUSH1 0x80 PUSH1 0x40 MSTORE CALLVALUE DUP1 ISZERO PUSH1 0xF JUMPI PUSH1 0x0 DUP1 REVERT JUMPDEST POP PUSH1 0x1 DUP1 SLOAD PUSH1 0x1 PUSH1 0x1 PUSH1 0xA0 SHL SUB NOT AND CALLER OR SWAP1 SSTORE PUSH1 0x0 DUP1 SSTORE PUSH2 0x2A9 DUP1 PUSH2 0x35 PUSH1 0x0 CODECOPY PUSH1 0x0 RETURN INVALID PUSH1 0x80 PUSH1 0x40 MSTORE CALLVALUE DUP1 ISZERO PUSH2 0x10 JUMPI PUSH1 0x0 DUP1 REVERT JUMPDEST POP PUSH1 0x4 CALLDATASIZE LT PUSH2 0x57 JUMPI PUSH1 0x0 CALLDATALOAD PUSH1 0xE0 SHR DUP1 PUSH4 0x3A9EBEFD EQ PUSH2 0x5C JUMPI DUP1 PUSH4 0x7CF5DAB0 EQ PUSH2 0x71 JUMPI DUP1 PUSH4 0x8DA5CB5B EQ PUSH2 0x84 JUMPI DUP1 PUSH4 0xA87D942C EQ PUSH2 0xB4 JUMPI DUP1 PUSH4 0xD826F88F EQ PUSH2 0xC5 JUMPI JUMPDEST PUSH1 0x0 DUP1 REVERT JUMPDEST PUSH2 0x6F PUSH2 0x6A CALLDATASIZE PUSH1 0x4 PUSH2 0x218 JUMP JUMPDEST PUSH2 0xCD JUMP JUMPDEST STOP JUMPDEST PUSH2 0x6F PUSH2 0x7F CALLDATASIZE PUSH1 0x4 PUSH2 0x218 JUMP JUMPDEST PUSH2 0x185 JUMP JUMPDEST PUSH1 0x1 SLOAD PUSH2 0x97 SWAP1 PUSH1 0x1 PUSH1 0x1 PUSH1 0xA0 SHL SUB AND DUP2 JUMP JUMPDEST PUSH1 0x40 MLOAD PUSH1 0x1 PUSH1 0x1 PUSH1 0xA0 SHL SUB SWAP1 SWAP2 AND DUP2 MSTORE PUSH1 0x20 ADD JUMPDEST PUSH1 0x40 MLOAD DUP1 SWAP2 SUB SWAP1 RETURN JUMPDEST PUSH1 0x0 SLOAD PUSH1 0x40 MLOAD SWAP1 DUP2 MSTORE PUSH1 0x20 ADD PUSH2 0xAB JUMP JUMPDEST PUSH2 0x6F PUSH2 0x196 JUMP JUMPDEST DUP1 PUSH1 0x0 SLOAD LT ISZERO PUSH2 0x134 JUMPI PUSH1 0x40 MLOAD PUSH3 0x461BCD PUSH1 0xE5 SHL DUP2 MSTORE PUSH1 0x20 PUSH1 0x4 DUP3 ADD MSTORE PUSH1 0x27 PUSH1 0x24 DUP3 ADD MSTORE PUSH32 0x43616E6E6F74207375627472616374206D6F7265207468616E2063757272656E PUSH1 0x44 DUP3 ADD MSTORE PUSH7 0x1D0818DBDD5B9D PUSH1 0xCA SHL PUSH1 0x64 DUP3 ADD MSTORE PUSH1 0x84 ADD JUMPDEST PUSH1 0x40 MLOAD DUP1 SWAP2 SUB SWAP1 REVERT JUMPDEST DUP1 PUSH1 0x0 DUP1 DUP3 DUP3 SLOAD PUSH2 0x145 SWAP2 SWAP1 PUSH2 0x247 JUMP JUMPDEST SWAP1 SWAP2 SSTORE POP POP PUSH1 0x0 SLOAD PUSH1 0x40 MLOAD SWAP1 DUP2 MSTORE CALLER SWAP1 PUSH32 0xB7ED3FE9B32FA6D4C8EE075D7C68E23F8409C6EF8F6292E5032C64ECF6DFA901 SWAP1 PUSH1 0x20 ADD PUSH1 0x40 MLOAD DUP1 SWAP2 SUB SWAP1 LOG2 POP JUMP JUMPDEST DUP1 PUSH1 0x0 DUP1 DUP3 DUP3 SLOAD PUSH2 0x145 SWAP2 SWAP1 PUSH2 0x260 JUMP JUMPDEST PUSH1 0x1 SLOAD PUSH1 0x1 PUSH1 0x1 PUSH1 0xA0 SHL SUB AND CALLER EQ PUSH2 0x1DC JUMPI PUSH1 0x40 MLOAD PUSH3 0x461BCD PUSH1 0xE5 SHL DUP2 MSTORE PUSH1 0x20 PUSH1 0x4 DUP3 ADD MSTORE PUSH1 0x9 PUSH1 0x24 DUP3 ADD MSTORE PUSH9 0x2737BA1037BBB732B9 PUSH1 0xB9 SHL PUSH1 0x44 DUP3 ADD MSTORE PUSH1 0x64 ADD PUSH2 0x12B JUMP JUMPDEST PUSH1 0x0 DUP1 DUP1 SSTORE PUSH1 0x40 MLOAD SWAP1 DUP2 MSTORE CALLER SWAP1 PUSH32 0xB7ED3FE9B32FA6D4C8EE075D7C68E23F8409C6EF8F6292E5032C64ECF6DFA901 SWAP1 PUSH1 0x20 ADD PUSH1 0x40 MLOAD DUP1 SWAP2 SUB SWAP1 LOG2 JUMP JUMPDEST PUSH1 0x0 PUSH1 0x20 DUP3 DUP5 SUB SLT ISZERO PUSH2 0x22A JUMPI PUSH1 0x0 DUP1 REVERT JUMPDEST POP CALLDATALOAD SWAP2 SWAP1 POP JUMP JUMPDEST PUSH4 0x4E487B71 PUSH1 0xE0 SHL PUSH1 0x0 MSTORE PUSH1 0x11 PUSH1 0x4 MSTORE PUSH1 0x24 PUSH1 0x0 REVERT JUMPDEST DUP2 DUP2 SUB DUP2 DUP2 GT ISZERO PUSH2 0x25A JUMPI PUSH2 0x25A PUSH2 0x231 JUMP JUMPDEST SWAP3 SWAP2 POP POP JUMP JUMPDEST DUP1 DUP3 ADD DUP1 DUP3 GT ISZERO PUSH2 0x25A JUMPI PUSH2 0x25A PUSH2 0x231 JUMP INVALID LOG2 PUSH5 0x6970667358 0x22 SLT KECCAK256 DUP9 MCOPY LOG4 0xE8 0xBC SLT 0xD5 0xC1 0xBC SDIV PUSH14 0x1ECC0B5C11B90B514A7779F7FB47 EQ PUSH27 0x65750139A464736F6C634300081C00330000000000000000000000 "},"methodIdentifiers":{"decrement(uint256)":"3a9ebefd","getCount()":"a87d942c","increment(uint256)":"7cf5dab0","owner()":"8da5cb5b","reset()":"d826f88f"}}}}}