{
  "_format": "hh-sol-artifact-1",
  "contractName": "SimpleCounter",
  "sourceName": "contracts/SimpleCounter.sol",
  "abi": [
    {
      "inputs": [],
      "stateMutability": "nonpayable",
      "type": "constructor"
    },
    {
      "anonymous": false,
      "inputs": [
        {
          "indexed": false,
          "internalType": "uint256",
          "name": "newCount",
          "type": "uint256"
        },
        {
          "indexed": true,
          "internalType": "address",
          "name": "user",
          "type": "address"
        }
      ],
      "name": "CounterUpdated",
      "type": "event"
    },
    {
      "inputs": [
        {
          "internalType": "uint256",
          "name": "value",
          "type": "uint256"
        }
      ],
      "name": "decrement",
      "outputs": [],
      "stateMutability": "nonpayable",
      "type": "function"
    },
    {
      "inputs": [],
      "name": "getCount",
      "outputs": [
        {
          "internalType": "uint256",
          "name": "",
          "type": "uint256"
        }
      ],
      "stateMutability": "view",
      "type": "function"
    },
    {
      "inputs": [
        {
          "internalType": "uint256",
          "name": "value",
          "type": "uint256"
        }
      ],
      "name": "increment",
      "outputs": [],
      "stateMutability": "nonpayable",
      "type": "function"
    },
    {
      "inputs": [],
      "name": "owner",
      "outputs": [
        {
          "internalType": "address",
          "name": "",
          "type": "address"
        }
      ],
      "stateMutability": "view",
      "type": "function"
    },
    {
      "inputs": [],
      "name": "reset",
      "outputs": [],
      "stateMutability": "nonpayable",
      "type": "function"
    }
  ],
  "bytecode": "0x6080604052348015600f57600080fd5b50600180546001600160a01b03191633179055600080556102a9806100356000396000f3fe608060405234801561001057600080fd5b50600436106100575760003560e01c80633a9ebefd1461005c5780637cf5dab0146100715780638da5cb5b14610084578063a87d942c146100b4578063d826f88f146100c5575b600080fd5b61006f61006a366004610218565b6100cd565b005b61006f61007f366004610218565b610185565b600154610097906001600160a01b031681565b6040516001600160a01b0390911681526020015b60405180910390f35b6000546040519081526020016100ab565b61006f610196565b8060005410156101345760405162461bcd60e51b815260206004820152602760248201527f43616e6e6f74207375627472616374206d6f7265207468616e2063757272656e6044820152661d0818dbdd5b9d60ca1b60648201526084015b60405180910390fd5b806000808282546101459190610247565b909155505060005460405190815233907fb7ed3fe9b32fa6d4c8ee075d7c68e23f8409c6ef8f6292e5032c64ecf6dfa9019060200160405180910390a250565b806000808282546101459190610260565b6001546001600160a01b031633146101dc5760405162461bcd60e51b81526020600482015260096024820152682737ba1037bbb732b960b91b604482015260640161012b565b600080805560405190815233907fb7ed3fe9b32fa6d4c8ee075d7c68e23f8409c6ef8f6292e5032c64ecf6dfa9019060200160405180910390a2565b60006020828403121561022a57600080fd5b5035919050565b634e487b7160e01b600052601160045260246000fd5b8181038181111561025a5761025a610231565b92915050565b8082018082111561025a5761025a61023156fea2646970667358221220885ea4e8bc12d5c1bc056d1ecc0b5c11b90b514a7779f7fb47147a65750139a464736f6c634300081c0033",
  "linkReferences": {},
  "deployedLinkReferences": {}
}